{
  "contractName": "VolunteerSessionManager",
  "abi": [
    {
      "inputs": [],
      "stateMutability": "nonpayable",
      "type": "constructor"
    },
    {
      "inputs": [
        {
          "internalType": "address",
          "name": "sender",
          "type": "address"
        },
        {
          "internalType": "uint256",
          "name": "tokenId",
          "type": "uint256"
        },
        {
          "internalType": "address",
          "name": "owner",
          "type": "address"
        }
      ],
      "name": "ERC721IncorrectOwner",
      "type": "error"
    },
    {
      "inputs": [
        {
          "internalType": "address",
          "name": "operator",
          "type": "address"
        },
        {
          "internalType": "uint256",
          "name": "tokenId",
          "type": "uint256"
        }
      ],
      "name": "ERC721InsufficientApproval",
      "type": "error"
    },
    {
      "inputs": [
        {
          "internalType": "address",
          "name": "approver",
          "type": "address"
        }
      ],
      "name": "ERC721InvalidApprover",
      "type": "error"
    },
    {
      "inputs": [
        {
          "internalType": "address",
          "name": "operator",
          "type": "address"
        }
      ],
      "name": "ERC721InvalidOperator",
      "type": "error"
    },
    {
      "inputs": [
        {
          "internalType": "address",
          "name": "owner",
          "type": "address"
        }
      ],
      "name": "ERC721InvalidOwner",
      "type": "error"
    },
    {
      "inputs": [
        {
          "internalType": "address",
          "name": "receiver",
          "type": "address"
        }
      ],
      "name": "ERC721InvalidReceiver",
      "type": "error"
    },
    {
      "inputs": [
        {
          "internalType": "address",
          "name": "sender",
          "type": "address"
        }
      ],
      "name": "ERC721InvalidSender",
      "type": "error"
    },
    {
      "inputs": [
        {
          "internalType": "uint256",
          "name": "tokenId",
          "type": "uint256"
        }
      ],
      "name": "ERC721NonexistentToken",
      "type": "error"
    },
    {
      "anonymous": false,
      "inputs": [
        {
          "indexed": true,
          "internalType": "address",
          "name": "owner",
          "type": "address"
        },
        {
          "indexed": true,
          "internalType": "address",
          "name": "approved",
          "type": "address"
        },
        {
          "indexed": true,
          "internalType": "uint256",
          "name": "tokenId",
          "type": "uint256"
        }
      ],
      "name": "Approval",
      "type": "event"
    },
    {
      "anonymous": false,
      "inputs": [
        {
          "indexed": true,
          "internalType": "address",
          "name": "owner",
          "type": "address"
        },
        {
          "indexed": true,
          "internalType": "address",
          "name": "operator",
          "type": "address"
        },
        {
          "indexed": false,
          "internalType": "bool",
          "name": "approved",
          "type": "bool"
        }
      ],
      "name": "ApprovalForAll",
      "type": "event"
    },
    {
      "anonymous": false,
      "inputs": [
        {
          "indexed": false,
          "internalType": "uint256",
          "name": "_fromTokenId",
          "type": "uint256"
        },
        {
          "indexed": false,
          "internalType": "uint256",
          "name": "_toTokenId",
          "type": "uint256"
        }
      ],
      "name": "BatchMetadataUpdate",
      "type": "event"
    },
    {
      "anonymous": false,
      "inputs": [
        {
          "indexed": false,
          "internalType": "string",
          "name": "certificateId",
          "type": "string"
        },
        {
          "indexed": false,
          "internalType": "string",
          "name": "userId",
          "type": "string"
        },
        {
          "indexed": false,
          "internalType": "string",
          "name": "username",
          "type": "string"
        },
        {
          "indexed": false,
          "internalType": "uint256",
          "name": "totalHours",
          "type": "uint256"
        },
        {
          "indexed": false,
          "internalType": "string",
          "name": "issueDate",
          "type": "string"
        }
      ],
      "name": "CertificateIssued",
      "type": "event"
    },
    {
      "anonymous": false,
      "inputs": [
        {
          "indexed": false,
          "internalType": "uint256",
          "name": "_tokenId",
          "type": "uint256"
        }
      ],
      "name": "MetadataUpdate",
      "type": "event"
    },
    {
      "anonymous": false,
      "inputs": [
        {
          "indexed": true,
          "internalType": "address",
          "name": "from",
          "type": "address"
        },
        {
          "indexed": true,
          "internalType": "address",
          "name": "to",
          "type": "address"
        },
        {
          "indexed": true,
          "internalType": "uint256",
          "name": "tokenId",
          "type": "uint256"
        }
      ],
      "name": "Transfer",
      "type": "event"
    },
    {
      "anonymous": false,
      "inputs": [
        {
          "indexed": true,
          "internalType": "uint256",
          "name": "sessionId",
          "type": "uint256"
        },
        {
          "indexed": false,
          "internalType": "string",
          "name": "userId",
          "type": "string"
        },
        {
          "indexed": false,
          "internalType": "string",
          "name": "username",
          "type": "string"
        },
        {
          "indexed": false,
          "internalType": "uint256",
          "name": "volunteerHours",
          "type": "uint256"
        },
        {
          "indexed": false,
          "internalType": "string",
          "name": "date",
          "type": "string"
        },
        {
          "indexed": false,
          "internalType": "string",
          "name": "volunteerType",
          "type": "string"
        },
        {
          "indexed": false,
          "internalType": "address",
          "name": "userAddress",
          "type": "address"
        }
      ],
      "name": "VolunteerSessionCreated",
      "type": "event"
    },
    {
      "inputs": [
        {
          "internalType": "address",
          "name": "to",
          "type": "address"
        },
        {
          "internalType": "uint256",
          "name": "tokenId",
          "type": "uint256"
        }
      ],
      "name": "approve",
      "outputs": [],
      "stateMutability": "nonpayable",
      "type": "function"
    },
    {
      "inputs": [
        {
          "internalType": "address",
          "name": "owner",
          "type": "address"
        }
      ],
      "name": "balanceOf",
      "outputs": [
        {
          "internalType": "uint256",
          "name": "",
          "type": "uint256"
        }
      ],
      "stateMutability": "view",
      "type": "function"
    },
    {
      "inputs": [
        {
          "internalType": "string",
          "name": "",
          "type": "string"
        }
      ],
      "name": "certificates",
      "outputs": [
        {
          "internalType": "string",
          "name": "certificateId",
          "type": "string"
        },
        {
          "internalType": "string",
          "name": "userId",
          "type": "string"
        },
        {
          "internalType": "string",
          "name": "username",
          "type": "string"
        },
        {
          "internalType": "uint256",
          "name": "totalHours",
          "type": "uint256"
        },
        {
          "internalType": "string",
          "name": "issueDate",
          "type": "string"
        }
      ],
      "stateMutability": "view",
      "type": "function"
    },
    {
      "inputs": [
        {
          "internalType": "uint256",
          "name": "tokenId",
          "type": "uint256"
        }
      ],
      "name": "getApproved",
      "outputs": [
        {
          "internalType": "address",
          "name": "",
          "type": "address"
        }
      ],
      "stateMutability": "view",
      "type": "function"
    },
    {
      "inputs": [
        {
          "internalType": "address",
          "name": "owner",
          "type": "address"
        },
        {
          "internalType": "address",
          "name": "operator",
          "type": "address"
        }
      ],
      "name": "isApprovedForAll",
      "outputs": [
        {
          "internalType": "bool",
          "name": "",
          "type": "bool"
        }
      ],
      "stateMutability": "view",
      "type": "function"
    },
    {
      "inputs": [],
      "name": "name",
      "outputs": [
        {
          "internalType": "string",
          "name": "",
          "type": "string"
        }
      ],
      "stateMutability": "view",
      "type": "function"
    },
    {
      "inputs": [
        {
          "internalType": "uint256",
          "name": "tokenId",
          "type": "uint256"
        }
      ],
      "name": "ownerOf",
      "outputs": [
        {
          "internalType": "address",
          "name": "",
          "type": "address"
        }
      ],
      "stateMutability": "view",
      "type": "function"
    },
    {
      "inputs": [
        {
          "internalType": "address",
          "name": "from",
          "type": "address"
        },
        {
          "internalType": "address",
          "name": "to",
          "type": "address"
        },
        {
          "internalType": "uint256",
          "name": "tokenId",
          "type": "uint256"
        }
      ],
      "name": "safeTransferFrom",
      "outputs": [],
      "stateMutability": "nonpayable",
      "type": "function"
    },
    {
      "inputs": [
        {
          "internalType": "address",
          "name": "from",
          "type": "address"
        },
        {
          "internalType": "address",
          "name": "to",
          "type": "address"
        },
        {
          "internalType": "uint256",
          "name": "tokenId",
          "type": "uint256"
        },
        {
          "internalType": "bytes",
          "name": "data",
          "type": "bytes"
        }
      ],
      "name": "safeTransferFrom",
      "outputs": [],
      "stateMutability": "nonpayable",
      "type": "function"
    },
    {
      "inputs": [],
      "name": "sessionCounter",
      "outputs": [
        {
          "internalType": "uint256",
          "name": "",
          "type": "uint256"
        }
      ],
      "stateMutability": "view",
      "type": "function"
    },
    {
      "inputs": [
        {
          "internalType": "address",
          "name": "operator",
          "type": "address"
        },
        {
          "internalType": "bool",
          "name": "approved",
          "type": "bool"
        }
      ],
      "name": "setApprovalForAll",
      "outputs": [],
      "stateMutability": "nonpayable",
      "type": "function"
    },
    {
      "inputs": [
        {
          "internalType": "bytes4",
          "name": "interfaceId",
          "type": "bytes4"
        }
      ],
      "name": "supportsInterface",
      "outputs": [
        {
          "internalType": "bool",
          "name": "",
          "type": "bool"
        }
      ],
      "stateMutability": "view",
      "type": "function"
    },
    {
      "inputs": [],
      "name": "symbol",
      "outputs": [
        {
          "internalType": "string",
          "name": "",
          "type": "string"
        }
      ],
      "stateMutability": "view",
      "type": "function"
    },
    {
      "inputs": [
        {
          "internalType": "uint256",
          "name": "tokenId",
          "type": "uint256"
        }
      ],
      "name": "tokenURI",
      "outputs": [
        {
          "internalType": "string",
          "name": "",
          "type": "string"
        }
      ],
      "stateMutability": "view",
      "type": "function"
    },
    {
      "inputs": [
        {
          "internalType": "address",
          "name": "from",
          "type": "address"
        },
        {
          "internalType": "address",
          "name": "to",
          "type": "address"
        },
        {
          "internalType": "uint256",
          "name": "tokenId",
          "type": "uint256"
        }
      ],
      "name": "transferFrom",
      "outputs": [],
      "stateMutability": "nonpayable",
      "type": "function"
    },
    {
      "inputs": [
        {
          "internalType": "string",
          "name": "",
          "type": "string"
        }
      ],
      "name": "userCertificateStatus",
      "outputs": [
        {
          "internalType": "bool",
          "name": "",
          "type": "bool"
        }
      ],
      "stateMutability": "view",
      "type": "function"
    },
    {
      "inputs": [
        {
          "internalType": "string",
          "name": "",
          "type": "string"
        },
        {
          "internalType": "uint256",
          "name": "",
          "type": "uint256"
        }
      ],
      "name": "userSessions",
      "outputs": [
        {
          "internalType": "uint256",
          "name": "",
          "type": "uint256"
        }
      ],
      "stateMutability": "view",
      "type": "function"
    },
    {
      "inputs": [
        {
          "internalType": "string",
          "name": "",
          "type": "string"
        }
      ],
      "name": "userToCertificate",
      "outputs": [
        {
          "internalType": "string",
          "name": "",
          "type": "string"
        }
      ],
      "stateMutability": "view",
      "type": "function"
    },
    {
      "inputs": [
        {
          "internalType": "uint256",
          "name": "",
          "type": "uint256"
        }
      ],
      "name": "volunteerSessions",
      "outputs": [
        {
          "internalType": "string",
          "name": "userId",
          "type": "string"
        },
        {
          "internalType": "string",
          "name": "username",
          "type": "string"
        },
        {
          "internalType": "uint256",
          "name": "volunteerHours",
          "type": "uint256"
        },
        {
          "internalType": "string",
          "name": "date",
          "type": "string"
        },
        {
          "internalType": "string",
          "name": "volunteerType",
          "type": "string"
        },
        {
          "internalType": "address",
          "name": "userAddress",
          "type": "address"
        }
      ],
      "stateMutability": "view",
      "type": "function"
    },
    {
      "inputs": [
        {
          "internalType": "string",
          "name": "userId",
          "type": "string"
        }
      ],
      "name": "hasUserCertificate",
      "outputs": [
        {
          "internalType": "bool",
          "name": "",
          "type": "bool"
        }
      ],
      "stateMutability": "view",
      "type": "function"
    },
    {
      "inputs": [
        {
          "internalType": "string",
          "name": "_userId",
          "type": "string"
        },
        {
          "internalType": "string",
          "name": "_username",
          "type": "string"
        },
        {
          "internalType": "uint256",
          "name": "_volunteerHours",
          "type": "uint256"
        },
        {
          "internalType": "string",
          "name": "_date",
          "type": "string"
        },
        {
          "internalType": "string",
          "name": "_volunteerType",
          "type": "string"
        },
        {
          "internalType": "address",
          "name": "_userAddress",
          "type": "address"
        }
      ],
      "name": "createVolunteerSession",
      "outputs": [
        {
          "internalType": "uint256",
          "name": "",
          "type": "uint256"
        }
      ],
      "stateMutability": "nonpayable",
      "type": "function"
    },
    {
      "inputs": [
        {
          "internalType": "string",
          "name": "certificateId",
          "type": "string"
        },
        {
          "internalType": "string",
          "name": "userId",
          "type": "string"
        },
        {
          "internalType": "string",
          "name": "username",
          "type": "string"
        },
        {
          "internalType": "string",
          "name": "issueDate",
          "type": "string"
        }
      ],
      "name": "issueCertificate",
      "outputs": [
        {
          "internalType": "string",
          "name": "returnedCertificateId",
          "type": "string"
        },
        {
          "internalType": "string",
          "name": "returnedUserId",
          "type": "string"
        },
        {
          "internalType": "string",
          "name": "returnedUsername",
          "type": "string"
        },
        {
          "internalType": "uint256",
          "name": "totalHours",
          "type": "uint256"
        },
        {
          "internalType": "string",
          "name": "returnedIssueDate",
          "type": "string"
        }
      ],
      "stateMutability": "nonpayable",
      "type": "function"
    },
    {
      "inputs": [
        {
          "internalType": "string",
          "name": "userId",
          "type": "string"
        }
      ],
      "name": "calculateTotalVolunteerHours",
      "outputs": [
        {
          "internalType": "uint256",
          "name": "",
          "type": "uint256"
        }
      ],
      "stateMutability": "view",
      "type": "function"
    },
    {
      "inputs": [
        {
          "internalType": "string",
          "name": "inputCertificateId",
          "type": "string"
        }
      ],
      "name": "getCertificateById",
      "outputs": [
        {
          "internalType": "string",
          "name": "certificateId",
          "type": "string"
        },
        {
          "internalType": "string",
          "name": "userId",
          "type": "string"
        },
        {
          "internalType": "string",
          "name": "username",
          "type": "string"
        },
        {
          "internalType": "uint256",
          "name": "totalHours",
          "type": "uint256"
        },
        {
          "internalType": "string",
          "name": "issueDate",
          "type": "string"
        }
      ],
      "stateMutability": "view",
      "type": "function"
    },
    {
      "inputs": [
        {
          "internalType": "uint256",
          "name": "_sessionId",
          "type": "uint256"
        }
      ],
      "name": "getVolunteerSession",
      "outputs": [
        {
          "components": [
            {
              "internalType": "string",
              "name": "userId",
              "type": "string"
            },
            {
              "internalType": "string",
              "name": "username",
              "type": "string"
            },
            {
              "internalType": "uint256",
              "name": "volunteerHours",
              "type": "uint256"
            },
            {
              "internalType": "string",
              "name": "date",
              "type": "string"
            },
            {
              "internalType": "string",
              "name": "volunteerType",
              "type": "string"
            },
            {
              "internalType": "address",
              "name": "userAddress",
              "type": "address"
            }
          ],
          "internalType": "struct VolunteerSessionManager.VolunteerSession",
          "name": "",
          "type": "tuple"
        }
      ],
      "stateMutability": "view",
      "type": "function"
    },
    {
      "inputs": [
        {
          "internalType": "string",
          "name": "_userId",
          "type": "string"
        }
      ],
      "name": "getVolunteerSessionsByUserId",
      "outputs": [
        {
          "internalType": "string[]",
          "name": "userIds",
          "type": "string[]"
        },
        {
          "internalType": "string[]",
          "name": "usernames",
          "type": "string[]"
        },
        {
          "internalType": "uint256[]",
          "name": "volunteerHours",
          "type": "uint256[]"
        },
        {
          "internalType": "string[]",
          "name": "dates",
          "type": "string[]"
        },
        {
          "internalType": "string[]",
          "name": "volunteerTypes",
          "type": "string[]"
        },
        {
          "internalType": "address[]",
          "name": "userAddresses",
          "type": "address[]"
        }
      ],
      "stateMutability": "view",
      "type": "function"
    },
    {
      "inputs": [
        {
          "internalType": "string",
          "name": "_userId",
          "type": "string"
        },
        {
          "internalType": "string",
          "name": "_volunteerType",
          "type": "string"
        }
      ],
      "name": "getVolunteerSessionsByUserIdAndType",
      "outputs": [
        {
          "internalType": "string[]",
          "name": "userIds",
          "type": "string[]"
        },
        {
          "internalType": "string[]",
          "name": "usernames",
          "type": "string[]"
        },
        {
          "internalType": "uint256[]",
          "name": "volunteerHours",
          "type": "uint256[]"
        },
        {
          "internalType": "string[]",
          "name": "dates",
          "type": "string[]"
        },
        {
          "internalType": "address[]",
          "name": "userAddresses",
          "type": "address[]"
        }
      ],
      "stateMutability": "view",
      "type": "function"
    },
    {
      "inputs": [
        {
          "internalType": "string",
          "name": "userId",
          "type": "string"
        }
      ],
      "name": "getCertificateByUserId",
      "outputs": [
        {
          "internalType": "string",
          "name": "certificateId",
          "type": "string"
        },
        {
          "internalType": "string",
          "name": "username",
          "type": "string"
        },
        {
          "internalType": "uint256",
          "name": "totalHours",
          "type": "uint256"
        },
        {
          "internalType": "string",
          "name": "issueDate",
          "type": "string"
        }
      ],
      "stateMutability": "view",
      "type": "function"
    }
  ],
  "bytecode": "0x608060405234801562000010575f80fd5b506040518060400160405280600d81526020016c159bdb1d5b9d19595c88139195609a1b815250604051806040016040528060048152602001631593919560e21b815250815f90816200006491906200011c565b5060016200007382826200011c565b505050620001e4565b634e487b7160e01b5f52604160045260245ffd5b600181811c90821680620000a557607f821691505b602082108103620000c457634e487b7160e01b5f52602260045260245ffd5b50919050565b601f82111562000117575f81815260208120601f850160051c81016020861015620000f25750805b601f850160051c820191505b818110156200011357828155600101620000fe565b5050505b505050565b81516001600160401b038111156200013857620001386200007c565b620001508162000149845462000090565b84620000ca565b602080601f83116001811462000186575f84156200016e5750858301515b5f19600386901b1c1916600185901b17855562000113565b5f85815260208120601f198616915b82811015620001b65788860151825594840194600190910190840162000195565b5085821015620001d457878501515f19600388901b60f8161c191681555b5050505050600190811b01905550565b61430f80620001f25f395ff3fe608060405234801561000f575f80fd5b50600436106101bb575f3560e01c8063818a2994116100f3578063b88d4fde11610093578063c9c228721161006e578063c9c2287214610428578063cc64e2af1461044c578063e985e9c514610455578063fad524f114610468575f80fd5b8063b88d4fde146103dd578063c25d8ecd146103f0578063c87b56dd14610415575f80fd5b8063a22cb465116100ce578063a22cb46514610372578063a2dd5c4114610385578063a366edc514610398578063b82c83b0146103b8575f80fd5b8063818a2994146103445780638f2b91ea1461035757806395d89b411461036a575f80fd5b806323b872dd1161015e57806345e373ed1161013957806345e373ed146102e75780636352211e1461030b57806370a082311461031e5780637989655b14610331575f80fd5b806323b872dd146102a05780633ed36b10146102b357806342842e0e146102d4575f80fd5b8063081812fc11610199578063081812fc1461021f578063095ea7b31461024a5780631989b3791461025f5780631fecebec1461028d575f80fd5b806301ffc9a7146101bf57806306fdde03146101e757806307a4172e146101fc575b5f80fd5b6101d26101cd3660046135b7565b61047b565b60405190151581526020015b60405180910390f35b6101ef6104a5565b6040516101de919061361f565b61020f61020a3660046136d5565b610534565b6040516101de9493929190613706565b61023261022d36600461374f565b6108f9565b6040516001600160a01b0390911681526020016101de565b61025d610258366004613781565b610920565b005b6101d261026d3660046136d5565b8051602081830181018051600c8252928201919093012091525460ff1681565b6101d261029b3660046136d5565b61092f565b61025d6102ae3660046137a9565b610959565b6102c66102c13660046136d5565b6109e2565b6040519081526020016101de565b61025d6102e23660046137a9565b610ab0565b6102fa6102f53660046136d5565b610acf565b6040516101de9594939291906137e2565b61023261031936600461374f565b610de7565b6102c661032c366004613840565b610df1565b6102c661033f366004613859565b610e36565b6102fa61035236600461389a565b610e72565b6102fa6103653660046136d5565b611294565b6101ef6114e5565b61025d61038036600461393f565b6114f4565b6102c6610393366004613978565b6114ff565b6103ab6103a636600461374f565b611686565b6040516101de9190613a35565b6103cb6103c636600461374f565b611942565b6040516101de96959493929190613ad5565b61025d6103eb366004613b43565b611b96565b6104036103fe3660046136d5565b611bae565b6040516101de96959493929190613c70565b6101ef61042336600461374f565b6121fa565b61043b610436366004613cf1565b612305565b6040516101de959493929190613d50565b6102c6600b5481565b6101d2610463366004613db0565b6129a7565b6101ef6104763660046136d5565b6129d4565b5f6001600160e01b03198216632483248360e11b148061049f575061049f82612a77565b92915050565b60605f80546104b390613de1565b80601f01602080910402602001604051908101604052809291908181526020018280546104df90613de1565b801561052a5780601f106105015761010080835404028352916020019161052a565b820191905f5260205f20905b81548152906001019060200180831161050d57829003601f168201915b5050505050905090565b6060805f6060600c8560405161054a9190613e34565b9081526040519081900360200190205460ff166105b95760405162461bcd60e51b815260206004820152602260248201527f4e6f20636572746966696361746520666f756e6420666f72207468697320757360448201526132b960f11b60648201526084015b60405180910390fd5b5f600a866040516105ca9190613e34565b908152602001604051809103902080546105e390613de1565b80601f016020809104026020016040519081016040528092919081815260200182805461060f90613de1565b801561065a5780601f106106315761010080835404028352916020019161065a565b820191905f5260205f20905b81548152906001019060200180831161063d57829003601f168201915b505050505090505f6009826040516106729190613e34565b90815260200160405180910390206040518060a00160405290815f8201805461069a90613de1565b80601f01602080910402602001604051908101604052809291908181526020018280546106c690613de1565b80156107115780601f106106e857610100808354040283529160200191610711565b820191905f5260205f20905b8154815290600101906020018083116106f457829003601f168201915b5050505050815260200160018201805461072a90613de1565b80601f016020809104026020016040519081016040528092919081815260200182805461075690613de1565b80156107a15780601f10610778576101008083540402835291602001916107a1565b820191905f5260205f20905b81548152906001019060200180831161078457829003601f168201915b505050505081526020016002820180546107ba90613de1565b80601f01602080910402602001604051908101604052809291908181526020018280546107e690613de1565b80156108315780601f1061080857610100808354040283529160200191610831565b820191905f5260205f20905b81548152906001019060200180831161081457829003601f168201915b505050505081526020016003820154815260200160048201805461085490613de1565b80601f016020809104026020016040519081016040528092919081815260200182805461088090613de1565b80156108cb5780601f106108a2576101008083540402835291602001916108cb565b820191905f5260205f20905b8154815290600101906020018083116108ae57829003601f168201915b505050919092525050815160408301516060840151608090940151919b909a50929850965090945050505050565b5f61090382612ac6565b505f828152600460205260409020546001600160a01b031661049f565b61092b828233612afe565b5050565b5f600c826040516109409190613e34565b9081526040519081900360200190205460ff1692915050565b6001600160a01b03821661098257604051633250574960e11b81525f60048201526024016105b0565b5f61098e838333612b0b565b9050836001600160a01b0316816001600160a01b0316146109dc576040516364283d7b60e01b81526001600160a01b03808616600483015260248201849052821660448201526064016105b0565b50505050565b5f805f90505f6008846040516109f89190613e34565b9081526040805191829003602090810183208054808302850183019093528284529190830182828015610a4857602002820191905f5260205f20905b815481526020019060010190808311610a34575b505050505090505f5b8151811015610aa75760075f838381518110610a6f57610a6f613e4f565b602002602001015181526020019081526020015f206002015483610a939190613e77565b925080610a9f81613e8a565b915050610a51565b50909392505050565b610aca83838360405180602001604052805f815250611b96565b505050565b60608060605f60605f600987604051610ae89190613e34565b9081526040519081900360200190208054610b0290613de1565b905011610b495760405162461bcd60e51b815260206004820152601560248201527410d95c9d1a599a58d85d19481b9bdd08199bdd5b99605a1b60448201526064016105b0565b5f600987604051610b5a9190613e34565b90815260200160405180910390206040518060a00160405290815f82018054610b8290613de1565b80601f0160208091040260200160405190810160405280929190818152602001828054610bae90613de1565b8015610bf95780601f10610bd057610100808354040283529160200191610bf9565b820191905f5260205f20905b815481529060010190602001808311610bdc57829003601f168201915b50505050508152602001600182018054610c1290613de1565b80601f0160208091040260200160405190810160405280929190818152602001828054610c3e90613de1565b8015610c895780601f10610c6057610100808354040283529160200191610c89565b820191905f5260205f20905b815481529060010190602001808311610c6c57829003601f168201915b50505050508152602001600282018054610ca290613de1565b80601f0160208091040260200160405190810160405280929190818152602001828054610cce90613de1565b8015610d195780601f10610cf057610100808354040283529160200191610d19565b820191905f5260205f20905b815481529060010190602001808311610cfc57829003601f168201915b5050505050815260200160038201548152602001600482018054610d3c90613de1565b80601f0160208091040260200160405190810160405280929190818152602001828054610d6890613de1565b8015610db35780601f10610d8a57610100808354040283529160200191610db3565b820191905f5260205f20905b815481529060010190602001808311610d9657829003601f168201915b5050509190925250508151602083015160408401516060850151608090950151929c919b5099509297509550909350505050565b5f61049f82612ac6565b5f6001600160a01b038216610e1b576040516322718ad960e21b81525f60048201526024016105b0565b506001600160a01b03165f9081526003602052604090205490565b81516020818401810180516008825292820191850191909120919052805482908110610e60575f80fd5b905f5260205f20015f91509150505481565b60608060605f60605f610e84896109e2565b90506050811015610e93575f80fd5b600c89604051610ea39190613e34565b9081526040519081900360200190205460ff1615610ebf575f80fd5b6040518060a001604052808b81526020018a81526020018981526020018281526020018881525060098b604051610ef69190613e34565b90815260405190819003602001902081518190610f139082613ee7565b5060208201516001820190610f289082613ee7565b5060408201516002820190610f3d9082613ee7565b506060820151600382015560808201516004820190610f5c9082613ee7565b509050506001600c8a604051610f729190613e34565b908152604051908190036020018120805492151560ff19909316929092179091558a90600a90610fa3908c90613e34565b90815260200160405180910390209081610fbd9190613ee7565b505f60098b604051610fcf9190613e34565b90815260200160405180910390206040518060a00160405290815f82018054610ff790613de1565b80601f016020809104026020016040519081016040528092919081815260200182805461102390613de1565b801561106e5780601f106110455761010080835404028352916020019161106e565b820191905f5260205f20905b81548152906001019060200180831161105157829003601f168201915b5050505050815260200160018201805461108790613de1565b80601f01602080910402602001604051908101604052809291908181526020018280546110b390613de1565b80156110fe5780601f106110d5576101008083540402835291602001916110fe565b820191905f5260205f20905b8154815290600101906020018083116110e157829003601f168201915b5050505050815260200160028201805461111790613de1565b80601f016020809104026020016040519081016040528092919081815260200182805461114390613de1565b801561118e5780601f106111655761010080835404028352916020019161118e565b820191905f5260205f20905b81548152906001019060200180831161117157829003601f168201915b50505050508152602001600382015481526020016004820180546111b190613de1565b80601f01602080910402602001604051908101604052809291908181526020018280546111dd90613de1565b80156112285780601f106111ff57610100808354040283529160200191611228565b820191905f5260205f20905b81548152906001019060200180831161120b57829003601f168201915b50505050508152505090507fa624be12790fd6ac838cb03bf8cd67606901956b9a6ea4c4f72c47c1eb814263815f0151826020015183604001518460600151856080015160405161127d9594939291906137e2565b60405180910390a150989997989697945050505050565b80516020818301810180516009825292820191909301209152805481906112ba90613de1565b80601f01602080910402602001604051908101604052809291908181526020018280546112e690613de1565b80156113315780601f1061130857610100808354040283529160200191611331565b820191905f5260205f20905b81548152906001019060200180831161131457829003601f168201915b50505050509080600101805461134690613de1565b80601f016020809104026020016040519081016040528092919081815260200182805461137290613de1565b80156113bd5780601f10611394576101008083540402835291602001916113bd565b820191905f5260205f20905b8154815290600101906020018083116113a057829003601f168201915b5050505050908060020180546113d290613de1565b80601f01602080910402602001604051908101604052809291908181526020018280546113fe90613de1565b80156114495780601f1061142057610100808354040283529160200191611449565b820191905f5260205f20905b81548152906001019060200180831161142c57829003601f168201915b50505050509080600301549080600401805461146490613de1565b80601f016020809104026020016040519081016040528092919081815260200182805461149090613de1565b80156114db5780601f106114b2576101008083540402835291602001916114db565b820191905f5260205f20905b8154815290600101906020018083116114be57829003601f168201915b5050505050905085565b6060600180546104b390613de1565b61092b338383612bfd565b600b80545f918261150f83613e8a565b90915550506040805160c081018252888152602080820189905281830188905260608201879052608082018690526001600160a01b03851660a0830152600b545f9081526007909152919091208151819061156a9082613ee7565b506020820151600182019061157f9082613ee7565b50604082015160028201556060820151600382019061159e9082613ee7565b50608082015160048201906115b39082613ee7565b5060a09190910151600590910180546001600160a01b0319166001600160a01b039092169190911790556040516008906115ee908990613e34565b90815260405160209181900382019020600b805482546001810184555f9384529390922090920155546116218382612c9b565b611637816116328a8a8a8a8a612cb4565b612d18565b600b547f45749e490c3159faea90711266d57ea5e2e4298182146b8995c134910143f36489898989898960405161167396959493929190613ad5565b60405180910390a2979650505050505050565b6116c66040518060c0016040528060608152602001606081526020015f815260200160608152602001606081526020015f6001600160a01b031681525090565b5f8281526007602052604090819020815160c081019092528054829082906116ed90613de1565b80601f016020809104026020016040519081016040528092919081815260200182805461171990613de1565b80156117645780601f1061173b57610100808354040283529160200191611764565b820191905f5260205f20905b81548152906001019060200180831161174757829003601f168201915b5050505050815260200160018201805461177d90613de1565b80601f01602080910402602001604051908101604052809291908181526020018280546117a990613de1565b80156117f45780601f106117cb576101008083540402835291602001916117f4565b820191905f5260205f20905b8154815290600101906020018083116117d757829003601f168201915b505050505081526020016002820154815260200160038201805461181790613de1565b80601f016020809104026020016040519081016040528092919081815260200182805461184390613de1565b801561188e5780601f106118655761010080835404028352916020019161188e565b820191905f5260205f20905b81548152906001019060200180831161187157829003601f168201915b505050505081526020016004820180546118a790613de1565b80601f01602080910402602001604051908101604052809291908181526020018280546118d390613de1565b801561191e5780601f106118f55761010080835404028352916020019161191e565b820191905f5260205f20905b81548152906001019060200180831161190157829003601f168201915b5050509183525050600591909101546001600160a01b031660209091015292915050565b60076020525f908152604090208054819061195c90613de1565b80601f016020809104026020016040519081016040528092919081815260200182805461198890613de1565b80156119d35780601f106119aa576101008083540402835291602001916119d3565b820191905f5260205f20905b8154815290600101906020018083116119b657829003601f168201915b5050505050908060010180546119e890613de1565b80601f0160208091040260200160405190810160405280929190818152602001828054611a1490613de1565b8015611a5f5780601f10611a3657610100808354040283529160200191611a5f565b820191905f5260205f20905b815481529060010190602001808311611a4257829003601f168201915b505050505090806002015490806003018054611a7a90613de1565b80601f0160208091040260200160405190810160405280929190818152602001828054611aa690613de1565b8015611af15780601f10611ac857610100808354040283529160200191611af1565b820191905f5260205f20905b815481529060010190602001808311611ad457829003601f168201915b505050505090806004018054611b0690613de1565b80601f0160208091040260200160405190810160405280929190818152602001828054611b3290613de1565b8015611b7d5780601f10611b5457610100808354040283529160200191611b7d565b820191905f5260205f20905b815481529060010190602001808311611b6057829003601f168201915b505050600590930154919250506001600160a01b031686565b611ba1848484610959565b6109dc3385858585612d67565b606080808080805f60015b600b548111611c3f5788604051602001611bd39190613e34565b60408051601f1981840301815282825280516020918201205f85815260078352929092209192611c04929101613fa2565b6040516020818303038152906040528051906020012003611c2d5781611c2981613e8a565b9250505b80611c3781613e8a565b915050611bb9565b505f816001600160401b03811115611c5957611c59613631565b604051908082528060200260200182016040528015611c8c57816020015b6060815260200190600190039081611c775790505b5090505f826001600160401b03811115611ca857611ca8613631565b604051908082528060200260200182016040528015611cdb57816020015b6060815260200190600190039081611cc65790505b5090505f836001600160401b03811115611cf757611cf7613631565b604051908082528060200260200182016040528015611d20578160200160208202803683370190505b5090505f846001600160401b03811115611d3c57611d3c613631565b604051908082528060200260200182016040528015611d6f57816020015b6060815260200190600190039081611d5a5790505b5090505f856001600160401b03811115611d8b57611d8b613631565b604051908082528060200260200182016040528015611dbe57816020015b6060815260200190600190039081611da95790505b5090505f866001600160401b03811115611dda57611dda613631565b604051908082528060200260200182016040528015611e03578160200160208202803683370190505b5090505f60015b600b5481116121e3578f604051602001611e249190613e34565b60408051601f1981840301815282825280516020918201205f85815260078352929092209192611e55929101613fa2565b60405160208183030381529060405280519060200120036121d1575f81815260076020526040808220815160c08101909252805482908290611e9690613de1565b80601f0160208091040260200160405190810160405280929190818152602001828054611ec290613de1565b8015611f0d5780601f10611ee457610100808354040283529160200191611f0d565b820191905f5260205f20905b815481529060010190602001808311611ef057829003601f168201915b50505050508152602001600182018054611f2690613de1565b80601f0160208091040260200160405190810160405280929190818152602001828054611f5290613de1565b8015611f9d5780601f10611f7457610100808354040283529160200191611f9d565b820191905f5260205f20905b815481529060010190602001808311611f8057829003601f168201915b5050505050815260200160028201548152602001600382018054611fc090613de1565b80601f0160208091040260200160405190810160405280929190818152602001828054611fec90613de1565b80156120375780601f1061200e57610100808354040283529160200191612037565b820191905f5260205f20905b81548152906001019060200180831161201a57829003601f168201915b5050505050815260200160048201805461205090613de1565b80601f016020809104026020016040519081016040528092919081815260200182805461207c90613de1565b80156120c75780601f1061209e576101008083540402835291602001916120c7565b820191905f5260205f20905b8154815290600101906020018083116120aa57829003601f168201915b5050509183525050600591909101546001600160a01b031660209091015280518a51919250908a90859081106120ff576120ff613e4f565b6020026020010181905250806020015188848151811061212157612121613e4f565b6020026020010181905250806040015187848151811061214357612143613e4f565b602002602001018181525050806060015186848151811061216657612166613e4f565b6020026020010181905250806080015185848151811061218857612188613e4f565b60200260200101819052508060a001518484815181106121aa576121aa613e4f565b6001600160a01b0390921660209283029190910190910152826121cc81613e8a565b935050505b806121db81613e8a565b915050611e0a565b50959e949d50929b50909950975095509350505050565b606061220582612ac6565b505f828152600660205260408120805461221e90613de1565b80601f016020809104026020016040519081016040528092919081815260200182805461224a90613de1565b80156122955780601f1061226c57610100808354040283529160200191612295565b820191905f5260205f20905b81548152906001019060200180831161227857829003601f168201915b505050505090505f6122b160408051602081019091525f815290565b905080515f036122c2575092915050565b8151156122f45780826040516020016122dc929190614014565b60405160208183030381529060405292505050919050565b6122fd84612e8f565b949350505050565b6060808080805f60015b600b5481116123fa57886040516020016123299190613e34565b60408051601f1981840301815282825280516020918201205f8581526007835292909220919261235a929101613fa2565b604051602081830303815290604052805190602001201480156123d55750876040516020016123899190613e34565b60408051601f1981840301815282825280516020918201205f858152600783529290922091926123bd926004019101613fa2565b60405160208183030381529060405280519060200120145b156123e857816123e481613e8a565b9250505b806123f281613e8a565b91505061230f565b505f816001600160401b0381111561241457612414613631565b60405190808252806020026020018201604052801561244757816020015b60608152602001906001900390816124325790505b5090505f826001600160401b0381111561246357612463613631565b60405190808252806020026020018201604052801561249657816020015b60608152602001906001900390816124815790505b5090505f836001600160401b038111156124b2576124b2613631565b6040519080825280602002602001820160405280156124db578160200160208202803683370190505b5090505f846001600160401b038111156124f7576124f7613631565b60405190808252806020026020018201604052801561252a57816020015b60608152602001906001900390816125155790505b5090505f856001600160401b0381111561254657612546613631565b60405190808252806020026020018201604052801561256f578160200160208202803683370190505b5090505f60015b600b548111612992578e6040516020016125909190613e34565b60408051601f1981840301815282825280516020918201205f858152600783529290922091926125c1929101613fa2565b6040516020818303038152906040528051906020012014801561263c57508d6040516020016125f09190613e34565b60408051601f1981840301815282825280516020918201205f85815260078352929092209192612624926004019101613fa2565b60405160208183030381529060405280519060200120145b15612980575f81815260076020526040808220815160c0810190925280548290829061266790613de1565b80601f016020809104026020016040519081016040528092919081815260200182805461269390613de1565b80156126de5780601f106126b5576101008083540402835291602001916126de565b820191905f5260205f20905b8154815290600101906020018083116126c157829003601f168201915b505050505081526020016001820180546126f790613de1565b80601f016020809104026020016040519081016040528092919081815260200182805461272390613de1565b801561276e5780601f106127455761010080835404028352916020019161276e565b820191905f5260205f20905b81548152906001019060200180831161275157829003601f168201915b505050505081526020016002820154815260200160038201805461279190613de1565b80601f01602080910402602001604051908101604052809291908181526020018280546127bd90613de1565b80156128085780601f106127df57610100808354040283529160200191612808565b820191905f5260205f20905b8154815290600101906020018083116127eb57829003601f168201915b5050505050815260200160048201805461282190613de1565b80601f016020809104026020016040519081016040528092919081815260200182805461284d90613de1565b80156128985780601f1061286f57610100808354040283529160200191612898565b820191905f5260205f20905b81548152906001019060200180831161287b57829003601f168201915b5050509183525050600591909101546001600160a01b031660209091015280518951919250908990859081106128d0576128d0613e4f565b602002602001018190525080602001518784815181106128f2576128f2613e4f565b6020026020010181905250806040015186848151811061291457612914613e4f565b602002602001018181525050806060015185848151811061293757612937613e4f565b60200260200101819052508060a0015184848151811061295957612959613e4f565b6001600160a01b03909216602092830291909101909101528261297b81613e8a565b935050505b8061298a81613e8a565b915050612576565b50949d939c50919a5098509650945050505050565b6001600160a01b039182165f90815260056020908152604080832093909416825291909152205460ff1690565b8051602081830181018051600a82529282019190930120915280546129f890613de1565b80601f0160208091040260200160405190810160405280929190818152602001828054612a2490613de1565b8015612a6f5780601f10612a4657610100808354040283529160200191612a6f565b820191905f5260205f20905b815481529060010190602001808311612a5257829003601f168201915b505050505081565b5f6001600160e01b031982166380ac58cd60e01b1480612aa757506001600160e01b03198216635b5e139f60e01b145b8061049f57506301ffc9a760e01b6001600160e01b031983161461049f565b5f818152600260205260408120546001600160a01b03168061049f57604051637e27328960e01b8152600481018490526024016105b0565b610aca8383836001612f00565b5f828152600260205260408120546001600160a01b0390811690831615612b3757612b37818486613004565b6001600160a01b03811615612b7157612b525f855f80612f00565b6001600160a01b0381165f90815260036020526040902080545f190190555b6001600160a01b03851615612b9f576001600160a01b0385165f908152600360205260409020805460010190555b5f8481526002602052604080822080546001600160a01b0319166001600160a01b0389811691821790925591518793918516917fddf252ad1be2c89b69c2b068fc378daa952ba7f163c4a11628f55a4df523b3ef91a4949350505050565b6001600160a01b038216612c2f57604051630b61174360e31b81526001600160a01b03831660048201526024016105b0565b6001600160a01b038381165f81815260056020908152604080832094871680845294825291829020805460ff191686151590811790915591519182527f17307eab39ab6107e8899845ad3d59bd9653f200f220920489ca2b5937696c31910160405180910390a3505050565b61092b828260405180602001604052805f815250613068565b6060612cee8686612cc48761307f565b8686604051602001612cda959493929190614042565b604051602081830303815290604052613186565b604051602001612cfe9190614155565b604051602081830303815290604052905095945050505050565b5f828152600660205260409020612d2f8282613ee7565b506040518281527ff8e1a15aba9398e019f0b49df1a4fde98ee17ae345cb5f6b5e2c27f5033e8ce79060200160405180910390a15050565b6001600160a01b0383163b15612e8857604051630a85bd0160e11b81526001600160a01b0384169063150b7a0290612da9908890889087908790600401614199565b6020604051808303815f875af1925050508015612de3575060408051601f3d908101601f19168201909252612de0918101906141d5565b60015b612e4a573d808015612e10576040519150601f19603f3d011682016040523d82523d5f602084013e612e15565b606091505b5080515f03612e4257604051633250574960e11b81526001600160a01b03851660048201526024016105b0565b805181602001fd5b6001600160e01b03198116630a85bd0160e11b14612e8657604051633250574960e11b81526001600160a01b03851660048201526024016105b0565b505b5050505050565b6060612e9a82612ac6565b505f612eb060408051602081019091525f815290565b90505f815111612ece5760405180602001604052805f815250612ef9565b80612ed884613377565b604051602001612ee9929190614014565b6040516020818303038152906040525b9392505050565b8080612f1457506001600160a01b03821615155b15612fd5575f612f2384612ac6565b90506001600160a01b03831615801590612f4f5750826001600160a01b0316816001600160a01b031614155b8015612f625750612f6081846129a7565b155b15612f8b5760405163a9fbf51f60e01b81526001600160a01b03841660048201526024016105b0565b8115612fd35783856001600160a01b0316826001600160a01b03167f8c5be1e5ebec7d5bd14f71427d1e84f3dd0314c0f7b2291e5b200ac8c7c3b92560405160405180910390a45b505b50505f90815260046020526040902080546001600160a01b0319166001600160a01b0392909216919091179055565b61300f838383613406565b610aca576001600160a01b03831661303d57604051637e27328960e01b8152600481018290526024016105b0565b60405163177e802f60e01b81526001600160a01b0383166004820152602481018290526044016105b0565b6130728383613467565b610aca335f858585612d67565b6060815f036130a55750506040805180820190915260018152600360fc1b602082015290565b815f5b81156130ce57806130b881613e8a565b91506130c79050600a83614204565b91506130a8565b5f816001600160401b038111156130e7576130e7613631565b6040519080825280601f01601f191660200182016040528015613111576020820181803683370190505b508593509050815b831561317d5761312a600a85614217565b613135906030613e77565b60f81b826131428361422a565b9250828151811061315557613155613e4f565b60200101906001600160f81b03191690815f1a905350613176600a85614204565b9350613119565b50949350505050565b60605f60405180606001604052806040815260200161429a6040913990505f6003845160026131b59190613e77565b6131bf9190614204565b6131ca90600461423f565b90505f816001600160401b038111156131e5576131e5613631565b6040519080825280601f01601f19166020018201604052801561320f576020820181803683370190505b509050825f805b875182101561336b575f6010898461322d81613e8a565b95508151811061323f5761323f613e4f565b01602001518a5160f89190911c90911b9150831015613283576008898461326581613e8a565b95508151811061327757613277613e4f565b016020015160f81c901b175b88518310156132b357888361329781613e8a565b9450815181106132a9576132a9613e4f565b016020015160f81c175b8484601283901c603f16815181106132cd576132cd613e4f565b602001015160f81c60f81b85600c84901c603f16815181106132f1576132f1613e4f565b602001015160f81c60f81b86600685901c603f168151811061331557613315613e4f565b602001015160f81c60f81b8785603f168151811061333557613335613e4f565b602001015160f81c60f81b604051602001613354959493929190614256565b604051602081830303815290604052945050613216565b50919695505050505050565b60605f613383836134c8565b60010190505f816001600160401b038111156133a1576133a1613631565b6040519080825280601f01601f1916602001820160405280156133cb576020820181803683370190505b5090508181016020015b5f19016f181899199a1a9b1b9c1cb0b131b232b360811b600a86061a8153600a85049450846133d557509392505050565b5f6001600160a01b038316158015906122fd5750826001600160a01b0316846001600160a01b0316148061343f575061343f84846129a7565b806122fd5750505f908152600460205260409020546001600160a01b03908116911614919050565b6001600160a01b03821661349057604051633250574960e11b81525f60048201526024016105b0565b5f61349c83835f612b0b565b90506001600160a01b03811615610aca576040516339e3563760e11b81525f60048201526024016105b0565b5f8072184f03e93ff9f4daa797ed6e38ed64bf6a1f0160401b83106135065772184f03e93ff9f4daa797ed6e38ed64bf6a1f0160401b830492506040015b6d04ee2d6d415b85acef81000000008310613532576d04ee2d6d415b85acef8100000000830492506020015b662386f26fc10000831061355057662386f26fc10000830492506010015b6305f5e1008310613568576305f5e100830492506008015b612710831061357c57612710830492506004015b6064831061358e576064830492506002015b600a831061049f5760010192915050565b6001600160e01b0319811681146135b4575f80fd5b50565b5f602082840312156135c7575f80fd5b8135612ef98161359f565b5f5b838110156135ec5781810151838201526020016135d4565b50505f910152565b5f815180845261360b8160208601602086016135d2565b601f01601f19169290920160200192915050565b602081525f612ef960208301846135f4565b634e487b7160e01b5f52604160045260245ffd5b5f6001600160401b038084111561365e5761365e613631565b604051601f8501601f19908116603f0116810190828211818310171561368657613686613631565b8160405280935085815286868601111561369e575f80fd5b858560208301375f602087830101525050509392505050565b5f82601f8301126136c6575f80fd5b612ef983833560208501613645565b5f602082840312156136e5575f80fd5b81356001600160401b038111156136fa575f80fd5b6122fd848285016136b7565b608081525f61371860808301876135f4565b828103602084015261372a81876135f4565b9050846040840152828103606084015261374481856135f4565b979650505050505050565b5f6020828403121561375f575f80fd5b5035919050565b80356001600160a01b038116811461377c575f80fd5b919050565b5f8060408385031215613792575f80fd5b61379b83613766565b946020939093013593505050565b5f805f606084860312156137bb575f80fd5b6137c484613766565b92506137d260208501613766565b9150604084013590509250925092565b60a081525f6137f460a08301886135f4565b828103602084015261380681886135f4565b9050828103604084015261381a81876135f4565b9050846060840152828103608084015261383481856135f4565b98975050505050505050565b5f60208284031215613850575f80fd5b612ef982613766565b5f806040838503121561386a575f80fd5b82356001600160401b0381111561387f575f80fd5b61388b858286016136b7565b95602094909401359450505050565b5f805f80608085870312156138ad575f80fd5b84356001600160401b03808211156138c3575f80fd5b6138cf888389016136b7565b955060208701359150808211156138e4575f80fd5b6138f0888389016136b7565b94506040870135915080821115613905575f80fd5b613911888389016136b7565b93506060870135915080821115613926575f80fd5b50613933878288016136b7565b91505092959194509250565b5f8060408385031215613950575f80fd5b61395983613766565b91506020830135801515811461396d575f80fd5b809150509250929050565b5f805f805f8060c0878903121561398d575f80fd5b86356001600160401b03808211156139a3575f80fd5b6139af8a838b016136b7565b975060208901359150808211156139c4575f80fd5b6139d08a838b016136b7565b96506040890135955060608901359150808211156139ec575f80fd5b6139f88a838b016136b7565b94506080890135915080821115613a0d575f80fd5b50613a1a89828a016136b7565b925050613a2960a08801613766565b90509295509295509295565b602081525f825160c06020840152613a5060e08401826135f4565b90506020840151601f1980858403016040860152613a6e83836135f4565b9250604086015160608601526060860151915080858403016080860152613a9583836135f4565b925060808601519150808584030160a086015250613ab382826135f4565b60a095909501516001600160a01b031660c09490940193909352509192915050565b60c081525f613ae760c08301896135f4565b8281036020840152613af981896135f4565b90508660408401528281036060840152613b1381876135f4565b90508281036080840152613b2781866135f4565b91505060018060a01b03831660a0830152979650505050505050565b5f805f8060808587031215613b56575f80fd5b613b5f85613766565b9350613b6d60208601613766565b92506040850135915060608501356001600160401b03811115613b8e575f80fd5b8501601f81018713613b9e575f80fd5b61393387823560208401613645565b5f81518084526020808501808196508360051b810191508286015f5b85811015613bf3578284038952613be18483516135f4565b98850198935090840190600101613bc9565b5091979650505050505050565b5f8151808452602080850194508084015f5b83811015613c2e57815187529582019590820190600101613c12565b509495945050505050565b5f8151808452602080850194508084015f5b83811015613c2e5781516001600160a01b031687529582019590820190600101613c4b565b60c081525f613c8260c0830189613bad565b8281036020840152613c948189613bad565b90508281036040840152613ca88188613c00565b90508281036060840152613cbc8187613bad565b90508281036080840152613cd08186613bad565b905082810360a0840152613ce48185613c39565b9998505050505050505050565b5f8060408385031215613d02575f80fd5b82356001600160401b0380821115613d18575f80fd5b613d24868387016136b7565b93506020850135915080821115613d39575f80fd5b50613d46858286016136b7565b9150509250929050565b60a081525f613d6260a0830188613bad565b8281036020840152613d748188613bad565b90508281036040840152613d888187613c00565b90508281036060840152613d9c8186613bad565b905082810360808401526138348185613c39565b5f8060408385031215613dc1575f80fd5b613dca83613766565b9150613dd860208401613766565b90509250929050565b600181811c90821680613df557607f821691505b602082108103613e1357634e487b7160e01b5f52602260045260245ffd5b50919050565b5f8151613e2a8185602086016135d2565b9290920192915050565b5f8251613e458184602087016135d2565b9190910192915050565b634e487b7160e01b5f52603260045260245ffd5b634e487b7160e01b5f52601160045260245ffd5b8082018082111561049f5761049f613e63565b5f60018201613e9b57613e9b613e63565b5060010190565b601f821115610aca575f81815260208120601f850160051c81016020861015613ec85750805b601f850160051c820191505b81811015612e8657828155600101613ed4565b81516001600160401b03811115613f0057613f00613631565b613f1481613f0e8454613de1565b84613ea2565b602080601f831160018114613f47575f8415613f305750858301515b5f19600386901b1c1916600185901b178555612e86565b5f85815260208120601f198616915b82811015613f7557888601518255948401946001909101908401613f56565b5085821015613f9257878501515f19600388901b60f8161c191681555b5050505050600190811b01905550565b5f808354613faf81613de1565b60018281168015613fc75760018114613fdc57614008565b60ff1984168752821515830287019450614008565b875f526020805f205f5b85811015613fff5781548a820152908401908201613fe6565b50505082870194505b50929695505050505050565b5f83516140258184602088016135d2565b8351908301906140398183602088016135d2565b01949350505050565b6b3d913ab9b2b924b2111d101160a11b815285515f9061406981600c850160208b016135d2565b61088b60f21b600c9184019182018190526c113ab9b2b93730b6b2911d101160991b600e83015287516140a381601b850160208c016135d2565b601b920191820181905272113b37b63ab73a32b2b92437bab939911d101160691b601d83015286516140dc816030850160208b016135d2565b603092019182015261383461414761414161412361411561410f6032870168113230ba32911d101160b91b815260090190565b8a613e19565b61088b60f21b815260020190565b71113b37b63ab73a32b2b92a3cb832911d101160711b815260120190565b86613e19565b61227d60f01b815260020190565b7f646174613a6170706c69636174696f6e2f6a736f6e3b6261736536342c00000081525f825161418c81601d8501602087016135d2565b91909101601d0192915050565b6001600160a01b03858116825284166020820152604081018390526080606082018190525f906141cb908301846135f4565b9695505050505050565b5f602082840312156141e5575f80fd5b8151612ef98161359f565b634e487b7160e01b5f52601260045260245ffd5b5f82614212576142126141f0565b500490565b5f82614225576142256141f0565b500690565b5f8161423857614238613e63565b505f190190565b808202811582820484141761049f5761049f613e63565b5f8651614267818460208b016135d2565b6001600160f81b031996871692019182525092841660018401529083166002830152909116600382015260040191905056fe4142434445464748494a4b4c4d4e4f505152535455565758595a6162636465666768696a6b6c6d6e6f707172737475767778797a303132333435363738392b2fa26469706673582212205f104abfebb3f828ef4caf52d9159b2f8e0aa6b0161736ba17f6897c40c42df664736f6c63430008150033",
  "immutableReferences": {},
  "source": "// SPDX-License-Identifier: MIT\r\npragma solidity 0.8.21;\r\n\r\nimport \"@openzeppelin/contracts/token/ERC721/extensions/ERC721URIStorage.sol\";\r\n\r\ncontract VolunteerSessionManager is ERC721URIStorage {\r\n    struct VolunteerSession {\r\n        string userId;\r\n        string username;\r\n        uint256 volunteerHours;\r\n        string date;\r\n        string volunteerType;\r\n        address userAddress;\r\n    }\r\n\r\n    struct Certificate {\r\n        string certificateId; // UUID\r\n        string userId;        //  ID\r\n        string username;      //  \r\n        uint256 totalHours;   //   \r\n        string issueDate;     // \r\n    }\r\n\r\n\r\n    mapping(uint256 => VolunteerSession) public volunteerSessions;\r\n    mapping(string => uint256[]) public userSessions; // userId     mapping\r\n    mapping(string => Certificate) public certificates; // certificateId => Certificate\r\n    mapping(string => string) public userToCertificate; // userId => certificateId\r\n\r\n    uint256 public sessionCounter;\r\n\r\n    //    \r\n    mapping(string => bool) public userCertificateStatus; // userId =>   \r\n\r\n    //       \r\n    function hasUserCertificate(string memory userId) public view returns (bool) {\r\n        return userCertificateStatus[userId];\r\n    }\r\n\r\n\r\n    // ERC-721  \r\n    event VolunteerSessionCreated(\r\n        uint256 indexed sessionId,\r\n        string userId,\r\n        string username,\r\n        uint256 volunteerHours,\r\n        string date,\r\n        string volunteerType,\r\n        address userAddress\r\n    );\r\n\r\n    event CertificateIssued(\r\n        string certificateId,\r\n        string userId,\r\n        string username,\r\n        uint256 totalHours,\r\n        string issueDate\r\n    );\r\n\r\n    constructor() ERC721(\"Volunteer NFT\", \"VNFT\") {}\r\n\r\n    function createVolunteerSession(\r\n        string memory _userId,\r\n        string memory _username,\r\n        uint256 _volunteerHours,\r\n        string memory _date,\r\n        string memory _volunteerType,\r\n        address _userAddress\r\n    ) public returns (uint256) {\r\n        sessionCounter++;\r\n\r\n        //   \r\n        volunteerSessions[sessionCounter] = VolunteerSession(\r\n            _userId,\r\n            _username,\r\n            _volunteerHours,\r\n            _date,\r\n            _volunteerType,\r\n            _userAddress\r\n        );\r\n        userSessions[_userId].push(sessionCounter); // userId   ID \r\n\r\n        // NFT \r\n        uint256 tokenId = sessionCounter;\r\n        _safeMint(_userAddress, tokenId); //   NFT \r\n        _setTokenURI(tokenId, generateTokenURI(_userId, _username, _volunteerHours, _date, _volunteerType)); //  \r\n\r\n        emit VolunteerSessionCreated(\r\n            sessionCounter,\r\n            _userId,\r\n            _username,\r\n            _volunteerHours,\r\n            _date,\r\n            _volunteerType,\r\n            _userAddress\r\n        );\r\n\r\n        return tokenId; //  NFT  ID \r\n    }\r\n\r\n\r\n//       \r\nfunction issueCertificate(\r\n    string memory certificateId,\r\n    string memory userId,\r\n    string memory username,\r\n    string memory issueDate\r\n) public returns (\r\n    string memory returnedCertificateId,\r\n    string memory returnedUserId,\r\n    string memory returnedUsername,\r\n    uint256 totalHours,\r\n    string memory returnedIssueDate\r\n) {\r\n    uint256 volunteerHours = calculateTotalVolunteerHours(userId);\r\n\r\n    //    \r\n    require(volunteerHours >= 80);\r\n\r\n    //    \r\n    require(!userCertificateStatus[userId]);\r\n\r\n    //  \r\n    certificates[certificateId] = Certificate({\r\n        certificateId: certificateId,\r\n        userId: userId,\r\n        username: username,\r\n        totalHours: volunteerHours,\r\n        issueDate: issueDate\r\n    });\r\n\r\n    userCertificateStatus[userId] = true;\r\n    userToCertificate[userId] = certificateId;\r\n    // :    \r\n    Certificate memory savedCert = certificates[certificateId];\r\n//    require(bytes(savedCert.certificateId).length > 0, \"Certificate was not saved properly\");\r\n    emit CertificateIssued(savedCert.certificateId, savedCert.userId, savedCert.username, savedCert.totalHours, savedCert.issueDate);\r\n\r\n    //     \r\n    return (certificateId, userId, username, volunteerHours, issueDate);\r\n}\r\n\r\n\r\n\r\n\r\n\r\n    function calculateTotalVolunteerHours(string memory userId) public view returns (uint256) {\r\n        uint256 totalHours = 0;\r\n        uint256[] memory sessions = userSessions[userId];\r\n\r\n        for (uint256 i = 0; i < sessions.length; i++) {\r\n            totalHours += volunteerSessions[sessions[i]].volunteerHours;\r\n        }\r\n\r\n        return totalHours;\r\n    }\r\n\r\n    function getCertificateById(string memory inputCertificateId)\r\n        public\r\n        view\r\n        returns (\r\n            string memory certificateId,\r\n            string memory userId,\r\n            string memory username,\r\n            uint256 totalHours,\r\n            string memory issueDate\r\n        ) {\r\n        require(bytes(certificates[inputCertificateId].certificateId).length > 0, \"Certificate not found\");\r\n        Certificate memory cert = certificates[inputCertificateId];\r\n        return (cert.certificateId, cert.userId, cert.username, cert.totalHours, cert.issueDate);\r\n    }\r\n\r\n\r\n    function generateTokenURI(\r\n        string memory _userId,\r\n        string memory _username,\r\n        uint256 _volunteerHours,\r\n        string memory _date,\r\n        string memory _volunteerType\r\n    ) internal pure returns (string memory) {\r\n        // NFT  :      JSON  \r\n        return string(\r\n            abi.encodePacked(\r\n                \"data:application/json;base64,\",\r\n                base64encode(\r\n                    abi.encodePacked(\r\n                        '{\"userId\": \"', _userId, '\",',\r\n                        '\"username\": \"', _username, '\",',\r\n                        '\"volunteerHours\": \"', uint2str(_volunteerHours), '\",',\r\n                        '\"date\": \"', _date, '\",',\r\n                        '\"volunteerType\": \"', _volunteerType, '\"}'\r\n                    )\r\n                )\r\n            )\r\n        );\r\n    }\r\n\r\n    function uint2str(uint256 _i) internal pure returns (string memory str) {\r\n        if (_i == 0) {\r\n            return \"0\";\r\n        }\r\n        uint256 j = _i;\r\n        uint256 len;\r\n        while (j != 0) {\r\n            len++;\r\n            j /= 10;\r\n        }\r\n        bytes memory bstr = new bytes(len);\r\n        uint256 k = len;\r\n        j = _i;\r\n        while (j != 0) {\r\n            bstr[--k] = bytes1(uint8(48 + j % 10));\r\n            j /= 10;\r\n        }\r\n        str = string(bstr);\r\n    }\r\n\r\n    // Base64   (metadadata Base64   )\r\n    function base64encode(bytes memory data) internal pure returns (string memory) {\r\n        string memory table = \"ABCDEFGHIJKLMNOPQRSTUVWXYZabcdefghijklmnopqrstuvwxyz0123456789+/\";\r\n        uint256 encodeLen = (data.length + 2) / 3 * 4;\r\n        string memory result = new string(encodeLen);\r\n        bytes memory tableBytes = bytes(table);\r\n        uint256 i = 0;\r\n        uint256 j = 0;\r\n\r\n        for (; i < data.length;) {\r\n            uint256 input = uint256(uint8(data[i++])) << 16;\r\n            if (i < data.length) {\r\n                input |= uint256(uint8(data[i++])) << 8;\r\n            }\r\n            if (i < data.length) {\r\n                input |= uint256(uint8(data[i++]));\r\n            }\r\n            result = string(abi.encodePacked(result, tableBytes[input >> 18 & 0x3F], tableBytes[input >> 12 & 0x3F], tableBytes[input >> 6 & 0x3F], tableBytes[input & 0x3F]));\r\n        }\r\n\r\n        return result;\r\n    }\r\n\r\n    function getVolunteerSession(uint256 _sessionId) public view returns (VolunteerSession memory) {\r\n        return volunteerSessions[_sessionId];\r\n    }\r\n\r\n    function getVolunteerSessionsByUserId(string memory _userId)\r\n        public\r\n        view\r\n        returns (\r\n            string[] memory userIds,\r\n            string[] memory usernames,\r\n            uint256[] memory volunteerHours,\r\n            string[] memory dates,\r\n            string[] memory volunteerTypes,\r\n            address[] memory userAddresses\r\n        )\r\n    {\r\n        uint256 count = 0;\r\n        for (uint256 i = 1; i <= sessionCounter; i++) {\r\n            if (keccak256(abi.encodePacked(volunteerSessions[i].userId)) == keccak256(abi.encodePacked(_userId))) {\r\n                count++;\r\n            }\r\n        }\r\n\r\n        //    \r\n        string[] memory _userIds = new string[](count);\r\n        string[] memory _usernames = new string[](count);\r\n        uint256[] memory _volunteerHours = new uint256[](count);\r\n        string[] memory _dates = new string[](count);\r\n        string[] memory _volunteerTypes = new string[](count);\r\n        address[] memory _userAddresses = new address[](count);\r\n\r\n        uint256 index = 0;\r\n        for (uint256 i = 1; i <= sessionCounter; i++) {\r\n            if (keccak256(abi.encodePacked(volunteerSessions[i].userId)) == keccak256(abi.encodePacked(_userId))) {\r\n                VolunteerSession memory session = volunteerSessions[i];\r\n                _userIds[index] = session.userId;\r\n                _usernames[index] = session.username;\r\n                _volunteerHours[index] = session.volunteerHours;\r\n                _dates[index] = session.date;\r\n                _volunteerTypes[index] = session.volunteerType;\r\n                _userAddresses[index] = session.userAddress;\r\n                index++;\r\n            }\r\n        }\r\n\r\n        return (_userIds, _usernames, _volunteerHours, _dates, _volunteerTypes, _userAddresses);\r\n    }\r\n\r\n\r\n    function getVolunteerSessionsByUserIdAndType(\r\n    string memory _userId,\r\n    string memory _volunteerType\r\n) public view returns (\r\n    string[] memory userIds,\r\n    string[] memory usernames,\r\n    uint256[] memory volunteerHours,\r\n    string[] memory dates,\r\n    address[] memory userAddresses\r\n) {\r\n    uint256 count = 0;\r\n\r\n    // `_userId` `_volunteerType`    \r\n    for (uint256 i = 1; i <= sessionCounter; i++) {\r\n        if (\r\n            keccak256(abi.encodePacked(volunteerSessions[i].userId)) ==\r\n            keccak256(abi.encodePacked(_userId)) &&\r\n            keccak256(abi.encodePacked(volunteerSessions[i].volunteerType)) ==\r\n            keccak256(abi.encodePacked(_volunteerType))\r\n        ) {\r\n            count++;\r\n        }\r\n    }\r\n\r\n    //     \r\n    string[] memory _userIds = new string[](count);\r\n    string[] memory _usernames = new string[](count);\r\n    uint256[] memory _volunteerHours = new uint256[](count);\r\n    string[] memory _dates = new string[](count);\r\n    address[] memory _userAddresses = new address[](count);\r\n\r\n    uint256 index = 0;\r\n\r\n    // `_userId` `_volunteerType`     \r\n    for (uint256 i = 1; i <= sessionCounter; i++) {\r\n        if (\r\n            keccak256(abi.encodePacked(volunteerSessions[i].userId)) ==\r\n            keccak256(abi.encodePacked(_userId)) &&\r\n            keccak256(abi.encodePacked(volunteerSessions[i].volunteerType)) ==\r\n            keccak256(abi.encodePacked(_volunteerType))\r\n        ) {\r\n            VolunteerSession memory session = volunteerSessions[i];\r\n            _userIds[index] = session.userId;\r\n            _usernames[index] = session.username;\r\n            _volunteerHours[index] = session.volunteerHours;\r\n            _dates[index] = session.date;\r\n            _userAddresses[index] = session.userAddress;\r\n            index++;\r\n        }\r\n    }\r\n\r\n    //  \r\n    return (_userIds, _usernames, _volunteerHours, _dates, _userAddresses);\r\n}\r\n\r\n    function getCertificateByUserId(string memory userId)\r\n        public\r\n        view\r\n        returns (\r\n            string memory certificateId,\r\n            string memory username,\r\n            uint256 totalHours,\r\n            string memory issueDate\r\n        )\r\n    {\r\n        require(userCertificateStatus[userId], \"No certificate found for this user\");\r\n\r\n        string memory certId = userToCertificate[userId];\r\n        Certificate memory cert = certificates[certId];\r\n\r\n        return (\r\n            cert.certificateId,\r\n            cert.username,\r\n            cert.totalHours,\r\n            cert.issueDate\r\n        );\r\n    }\r\n\r\n\r\n\r\n}\r\n",
  "sourcePath": "C:\\LEEKYUMIN\\ \\2024_DANPOONG_TEAM_43_BC\\contracts\\VolunteerSessionManager.sol",
  "compiler": {
    "name": "solc",
    "version": "0.8.21+commit.d9974bed.Emscripten.clang"
  },
  "schemaVersion": "3.4.16",
  "updatedAt": "2024-11-27T18:16:56.484Z",
  "devdoc": {
    "errors": {
      "ERC721IncorrectOwner(address,uint256,address)": [
        {
          "details": "Indicates an error related to the ownership over a particular token. Used in transfers.",
          "params": {
            "owner": "Address of the current owner of a token.",
            "sender": "Address whose tokens are being transferred.",
            "tokenId": "Identifier number of a token."
          }
        }
      ],
      "ERC721InsufficientApproval(address,uint256)": [
        {
          "details": "Indicates a failure with the `operator`s approval. Used in transfers.",
          "params": {
            "operator": "Address that may be allowed to operate on tokens without being their owner.",
            "tokenId": "Identifier number of a token."
          }
        }
      ],
      "ERC721InvalidApprover(address)": [
        {
          "details": "Indicates a failure with the `approver` of a token to be approved. Used in approvals.",
          "params": {
            "approver": "Address initiating an approval operation."
          }
        }
      ],
      "ERC721InvalidOperator(address)": [
        {
          "details": "Indicates a failure with the `operator` to be approved. Used in approvals.",
          "params": {
            "operator": "Address that may be allowed to operate on tokens without being their owner."
          }
        }
      ],
      "ERC721InvalidOwner(address)": [
        {
          "details": "Indicates that an address can't be an owner. For example, `address(0)` is a forbidden owner in ERC-20. Used in balance queries.",
          "params": {
            "owner": "Address of the current owner of a token."
          }
        }
      ],
      "ERC721InvalidReceiver(address)": [
        {
          "details": "Indicates a failure with the token `receiver`. Used in transfers.",
          "params": {
            "receiver": "Address to which tokens are being transferred."
          }
        }
      ],
      "ERC721InvalidSender(address)": [
        {
          "details": "Indicates a failure with the token `sender`. Used in transfers.",
          "params": {
            "sender": "Address whose tokens are being transferred."
          }
        }
      ],
      "ERC721NonexistentToken(uint256)": [
        {
          "details": "Indicates a `tokenId` whose `owner` is the zero address.",
          "params": {
            "tokenId": "Identifier number of a token."
          }
        }
      ]
    },
    "events": {
      "Approval(address,address,uint256)": {
        "details": "Emitted when `owner` enables `approved` to manage the `tokenId` token."
      },
      "ApprovalForAll(address,address,bool)": {
        "details": "Emitted when `owner` enables or disables (`approved`) `operator` to manage all of its assets."
      },
      "BatchMetadataUpdate(uint256,uint256)": {
        "details": "This event emits when the metadata of a range of tokens is changed. So that the third-party platforms such as NFT market could timely update the images and related attributes of the NFTs."
      },
      "MetadataUpdate(uint256)": {
        "details": "This event emits when the metadata of a token is changed. So that the third-party platforms such as NFT market could timely update the images and related attributes of the NFT."
      },
      "Transfer(address,address,uint256)": {
        "details": "Emitted when `tokenId` token is transferred from `from` to `to`."
      }
    },
    "kind": "dev",
    "methods": {
      "approve(address,uint256)": {
        "details": "See {IERC721-approve}."
      },
      "balanceOf(address)": {
        "details": "See {IERC721-balanceOf}."
      },
      "getApproved(uint256)": {
        "details": "See {IERC721-getApproved}."
      },
      "isApprovedForAll(address,address)": {
        "details": "See {IERC721-isApprovedForAll}."
      },
      "name()": {
        "details": "See {IERC721Metadata-name}."
      },
      "ownerOf(uint256)": {
        "details": "See {IERC721-ownerOf}."
      },
      "safeTransferFrom(address,address,uint256)": {
        "details": "See {IERC721-safeTransferFrom}."
      },
      "safeTransferFrom(address,address,uint256,bytes)": {
        "details": "See {IERC721-safeTransferFrom}."
      },
      "setApprovalForAll(address,bool)": {
        "details": "See {IERC721-setApprovalForAll}."
      },
      "supportsInterface(bytes4)": {
        "details": "See {IERC165-supportsInterface}"
      },
      "symbol()": {
        "details": "See {IERC721Metadata-symbol}."
      },
      "tokenURI(uint256)": {
        "details": "See {IERC721Metadata-tokenURI}."
      },
      "transferFrom(address,address,uint256)": {
        "details": "See {IERC721-transferFrom}."
      }
    },
    "version": 1
  },
  "userdoc": {
    "kind": "user",
    "methods": {},
    "version": 1
  }
}